:100000000C942A000C9447000C9447000C94470071
:100010000C9447000C9447000C9447000C94470044
:100020000C9447000C9447000C9447000C94470034
:100030000C9447000C9447000C9447000C94470024
:100040000C9447000C9447000C9447000C94470014
:100050000C94470011241FBECFE5D4E0DEBFCDBF16
:1000600011E0A0E6B0E0EEEFF7E002C005900D92DF
:10007000A233B107D9F711E0A2E3B1E001C01D92AC
:10008000A833B107E1F70E9489010C94FD030C9499
:1000900000008B3009F480E0089580E060E170E0BA
:1000A000E0E0F0E0A0E09B01082E02C0220F331F29
:1000B0000A94E2F72ABB20952BBBC89B10C09F0176
:1000C000922F9F5F49B32F5F3F4F50E0022E02C037
:1000D000559547950A94E2F740FD0AC001C090E0AB
:1000E0008F5F292F220F920F890F0E9449000895D8
:1000F0002330310529F78F5F8330A8F28A2FD3CFC1
:100100008F929F92AF92BF92CF92DF92FF920F9306
:100110001F93CF93DF9384E090E00E949902882E92
:10012000992E8114910439F482E061E040E650E0B8
:100130000E944B024AC081E061E042E750E00E9429
:100140004B0282E064E00E94300208EE13E0FF24DC
:100150000F2EFAE0AF2EBB24F02D0E944D00EFE4ED
:10016000F3EC3197F1F700C00000C82FD0E0CE01CA
:100170000E946302C09FC001C19F900DD09F900D4F
:100180001124C80ED91EC801B5010E9485028B0139
:10019000F394FF2DF43009F78091320190913301EF
:1001A000F40193838283D182C08290923301809242
:1001B00032018FE493EC0197F1F700C0000083E077
:1001C00060E040E850E00E944B02DF91CF911F9128
:1001D0000F91FF90DF90CF90BF90AF909F908F9046
:1001E00008958F929F92BF92CF92DF92EF92FF92EB
:1001F0000F931F93CF93DF9300913201109133013E
:100200000115110579F40E945F0282E062E045E980
:1002100050E00E944B0283E062E044EA50E00E941A
:100220004B026BC081E061E046EB50E00E944B0264
:1002300082E062E00E9430020F2EF8EECF2EF3E053
:10024000DF2EF02DBB240F2EFAE08F2E9924F02DF7
:100250000E944D00EFE4F3EC3197F1F700C000008D
:10026000C82FD0E0CE010E946302CC9DC001CD9D7D
:10027000900DDC9D900D1124E80EF91EC601B4010D
:100280000E9485026B01B394FB2DF43009F78FE4D3
:1002900093EC0197F1F700C00000F8018081918193
:1002A0008E159F05B1F406C0F801808191818E15ED
:1002B0009F0579F40E945F028FE493EC0197F1F7B8
:1002C00000C0000082E062E043EC50E00E944B027C
:1002D00014C0F801028113810115110529F70E944C
:1002E0005F028FE493EC0197F1F700C0000082E019
:1002F00062E04EEC50E00E944B02DF91CF911F91E3
:100300000F91FF90EF90DF90CF90BF909F908F90D4
:100310000895B898B099FECF87EA91E60197F1F772
:1003200000C000000E94EE0181E060E04FED50E06F
:100330000E944B0282E060E04FEE50E00E944B02D0
:1003400083E060E043E051E00E944B0284E060E023
:1003500046E151E00E944B020E944D00813071F451
:100360008FE39DE0A3E081509040A040E1F700C002
:1003700000000E945F020E948000EECF0E944D00AC
:10038000823051F78FE39DE0A3E081509040A04080
:10039000E1F700C000000E945F020E94F100DCCF84
:1003A00094989698E9EFF0E03197F1F700C00000DB
:1003B000959AE9EFF0E03197F1F700C0000085BBB6
:1003C00089EF90E00197F1F700C000009598E9EF00
:1003D000F0E03197F1F700C0000008958FEF84BB83
:1003E00081B3806781BB88E30E94D0018EE00E94C8
:1003F000D00181E00E94D0010895949A9698E9EF87
:10040000F0E03197F1F700C00000959AE9EFF0E0D5
:100410003197F1F700C0000085BB89EF90E00197AC
:10042000F1F700C000009598E9EFF0E03197F1F79F
:1004300000C0000008951F93CF93DF93EC018881E3
:10044000882351F010E00E94FD011F5FFE01E10FC3
:10045000F11D80818823B9F7DF91CF911F91089515
:10046000823051F0833018F4813081F40EC0833033
:1004700031F0843059F406C0962F905C07C0962F57
:100480009C5E04C0962F9C5A01C0962F892F8068CD
:100490000E94D0010895CF93DF93EA010E943002B9
:1004A000CE010E941B02DF91CF9108951F93142F5C
:1004B0000E943002812F0E94FD011F91089581E06A
:1004C0000E94D00108950F931F93DF93CF93CDB770
:1004D000DEB764970FB6F894DEBF0FBECDBF8E01B6
:1004E0000F5F1F4FB8014AE050E00E94CC03C801E3
:1004F0000E941B0264960FB6F894DEBF0FBECDBFFC
:10050000CF91DF911F910F910895AA1BBB1B51E161
:1005100007C0AA1FBB1FA617B70710F0A61BB70B73
:10052000881F991F5A95A9F780959095BC01CD0118
:100530000895CF93DF938230910510F482E090E02C
:10054000E0913601F091370140E050E020E030E0EA
:1005500026C06081718168177907E0F06817790714
:1005600081F4828193812115310531F0D9011396EF
:100570009C938E9312972BC09093370180933601F2
:1005800026C04115510519F06417750718F4AB0121
:10059000E901DF019F0172816381E72FF62F309718
:1005A000C1F64115510501F1481B590B4430510565
:1005B00080F412968D919C911397209719F09B834C
:1005C0008A8304C09093370180933601FD013296EF
:1005D00046C0FD01E40FF51F8193919342505040B6
:1005E00011965C934E933BC02091340130913501BC
:1005F0002115310541F420912D0130912E013093C8
:1006000035012093340120912F01309130012115C3
:10061000310541F42DB73EB740912B0150912C018B
:10062000241B350BE0913401F0913501E217F307FB
:10063000A0F42E1B3F0B2817390778F0AC014E5F52
:100640005F4F2417350748F04E0F5F1F5093350159
:10065000409334018193919302C0E0E0F0E0CF0138
:10066000DF91CF910895CF93DF93009709F491C064
:10067000FC0132971382128260913601709137012A
:100680006115710581F420813181280F391F809116
:100690003401909135018217930799F5F093350154
:1006A000E093340176C0DB0180E090E002C0CD0130
:1006B000D901AE17BF0748F412962D913C911397BC
:1006C00021153105A1F7CD0121C0B383A283EF012C
:1006D000499159919E01240F351FA217B30779F450
:1006E0002D913C911197240F351F2E5F3F4F318381
:1006F000208312962D913C91139733832283009788
:1007000029F4F0933701E093360143C0DC011396DE
:10071000FC93EE9312974D915D91A40FB51FEA17CC
:10072000FB0769F420813181240F351F2E5F3F4F75
:10073000EC0139832883228133813B832A83E0E0E3
:10074000F0E002C0FB01BC01DB0112968D919C918F
:1007500013970097B9F79B012E5F3F4F8D919C91A6
:100760001197820F931F4091340150913501481722
:10077000590779F4309729F4109237011092360115
:1007800002C01382128222503040309335012093F0
:100790003401DF91CF910895FB019F01E89442302D
:1007A000C4F04532B4F44A3029F497FB1EF4909516
:1007B00081959F4F642F77270E948502805D8A3341
:1007C0000CF0895D8193CB010097A1F716F45DE2EF
:1007D00051931082C9010C94ED03DC01FC01672FD9
:1007E00071917723E1F7329704C07C916D93708308
:0E07F0006291AE17BF07C8F30895F894FFCFCB
:1007FE00616C6C6F636174696F6E206661696C65A4
:10080E006400454E524F4C4C2054484520494400FC
:10081E0049442053544F5245442053554343454673
:10082E00554C4C59004E4F20455849535445442081
:10083E0049445300454E524F4C4C204944204649A2
:10084E005253544C5900454E54455220544845205D
:10085E0049440049442045584953544544004944AD
:10086E00204E4F54204558495354454420210049A9
:10087E004420766572696669636174696F6E0050B3
:10088E0052455353204549544845522031204F522A
:10089E002032003120544F20454E524F4C4C204EAA
:1008AE004557204944003220544F20434845434B7E
:1008BE00204558495354454E434500200038010009
:0208CE00000028
:00000001FF
